{
  "_format": "hh-sol-artifact-1",
  "contractName": "SoccerGame",
  "sourceName": "contracts/generatedContract.sol",
  "abi": [
    {
      "inputs": [
        {
          "internalType": "string[]",
          "name": "teamAPlayers",
          "type": "string[]"
        },
        {
          "internalType": "string[]",
          "name": "teamBPlayers",
          "type": "string[]"
        }
      ],
      "stateMutability": "nonpayable",
      "type": "constructor"
    },
    {
      "anonymous": false,
      "inputs": [
        {
          "indexed": false,
          "internalType": "string",
          "name": "winner",
          "type": "string"
        }
      ],
      "name": "GameEnded",
      "type": "event"
    },
    {
      "anonymous": false,
      "inputs": [],
      "name": "GameStarted",
      "type": "event"
    },
    {
      "anonymous": false,
      "inputs": [
        {
          "indexed": false,
          "internalType": "string",
          "name": "teamName",
          "type": "string"
        },
        {
          "indexed": false,
          "internalType": "uint8",
          "name": "newScore",
          "type": "uint8"
        }
      ],
      "name": "GoalScored",
      "type": "event"
    },
    {
      "inputs": [],
      "name": "declareWinner",
      "outputs": [
        {
          "internalType": "string",
          "name": "winner",
          "type": "string"
        }
      ],
      "stateMutability": "view",
      "type": "function"
    },
    {
      "inputs": [],
      "name": "endGame",
      "outputs": [],
      "stateMutability": "nonpayable",
      "type": "function"
    },
    {
      "inputs": [],
      "name": "gameStarted",
      "outputs": [
        {
          "internalType": "bool",
          "name": "",
          "type": "bool"
        }
      ],
      "stateMutability": "view",
      "type": "function"
    },
    {
      "inputs": [],
      "name": "owner",
      "outputs": [
        {
          "internalType": "address",
          "name": "",
          "type": "address"
        }
      ],
      "stateMutability": "view",
      "type": "function"
    },
    {
      "inputs": [],
      "name": "startGame",
      "outputs": [],
      "stateMutability": "nonpayable",
      "type": "function"
    },
    {
      "inputs": [],
      "name": "teamA",
      "outputs": [
        {
          "internalType": "string",
          "name": "name",
          "type": "string"
        },
        {
          "internalType": "uint8",
          "name": "score",
          "type": "uint8"
        }
      ],
      "stateMutability": "view",
      "type": "function"
    },
    {
      "inputs": [],
      "name": "teamB",
      "outputs": [
        {
          "internalType": "string",
          "name": "name",
          "type": "string"
        },
        {
          "internalType": "uint8",
          "name": "score",
          "type": "uint8"
        }
      ],
      "stateMutability": "view",
      "type": "function"
    },
    {
      "inputs": [
        {
          "internalType": "string",
          "name": "teamName",
          "type": "string"
        },
        {
          "internalType": "uint8",
          "name": "goals",
          "type": "uint8"
        }
      ],
      "name": "updateScore",
      "outputs": [],
      "stateMutability": "nonpayable",
      "type": "function"
    }
  ],
  "bytecode": "0x60806040523480156200001157600080fd5b5060405162001af938038062001af983398181016040528101906200003791906200055d565b33600660006101000a81548173ffffffffffffffffffffffffffffffffffffffff021916908373ffffffffffffffffffffffffffffffffffffffff16021790555060405180606001604052806040518060400160405280600681526020017f5465616d204100000000000000000000000000000000000000000000000000008152508152602001600060ff16815260200183815250600080820151816000019081620000e491906200082d565b5060208201518160010160006101000a81548160ff021916908360ff160217905550604082015181600201908051906020019062000124929190620001e1565b5090505060405180606001604052806040518060400160405280600681526020017f5465616d204200000000000000000000000000000000000000000000000000008152508152602001600060ff16815260200182815250600360008201518160000190816200019591906200082d565b5060208201518160010160006101000a81548160ff021916908360ff1602179055506040820151816002019080519060200190620001d5929190620001e1565b50905050505062000914565b8280548282559060005260206000209081019282156200022e579160200282015b828111156200022d5782518290816200021c91906200082d565b509160200191906001019062000202565b5b5090506200023d919062000241565b5090565b5b808211156200026557600081816200025b919062000269565b5060010162000242565b5090565b50805462000277906200061c565b6000825580601f106200028b5750620002ac565b601f016020900490600052602060002090810190620002ab9190620002af565b5b50565b5b80821115620002ca576000816000905550600101620002b0565b5090565b6000604051905090565b600080fd5b600080fd5b600080fd5b6000601f19601f8301169050919050565b7f4e487b7100000000000000000000000000000000000000000000000000000000600052604160045260246000fd5b6200033282620002e7565b810181811067ffffffffffffffff82111715620003545762000353620002f8565b5b80604052505050565b600062000369620002ce565b905062000377828262000327565b919050565b600067ffffffffffffffff8211156200039a5762000399620002f8565b5b602082029050602081019050919050565b600080fd5b600080fd5b600067ffffffffffffffff821115620003d357620003d2620002f8565b5b620003de82620002e7565b9050602081019050919050565b60005b838110156200040b578082015181840152602081019050620003ee565b60008484015250505050565b60006200042e6200042884620003b5565b6200035d565b9050828152602081018484840111156200044d576200044c620003b0565b5b6200045a848285620003eb565b509392505050565b600082601f8301126200047a5762000479620002e2565b5b81516200048c84826020860162000417565b91505092915050565b6000620004ac620004a6846200037c565b6200035d565b90508083825260208201905060208402830185811115620004d257620004d1620003ab565b5b835b818110156200052057805167ffffffffffffffff811115620004fb57620004fa620002e2565b5b8086016200050a898262000462565b85526020850194505050602081019050620004d4565b5050509392505050565b600082601f830112620005425762000541620002e2565b5b81516200055484826020860162000495565b91505092915050565b60008060408385031215620005775762000576620002d8565b5b600083015167ffffffffffffffff811115620005985762000597620002dd565b5b620005a6858286016200052a565b925050602083015167ffffffffffffffff811115620005ca57620005c9620002dd565b5b620005d8858286016200052a565b9150509250929050565b600081519050919050565b7f4e487b7100000000000000000000000000000000000000000000000000000000600052602260045260246000fd5b600060028204905060018216806200063557607f821691505b6020821081036200064b576200064a620005ed565b5b50919050565b60008190508160005260206000209050919050565b60006020601f8301049050919050565b600082821b905092915050565b600060088302620006b57fffffffffffffffffffffffffffffffffffffffffffffffffffffffffffffffff8262000676565b620006c1868362000676565b95508019841693508086168417925050509392505050565b6000819050919050565b6000819050919050565b60006200070e620007086200070284620006d9565b620006e3565b620006d9565b9050919050565b6000819050919050565b6200072a83620006ed565b62000742620007398262000715565b84845462000683565b825550505050565b600090565b620007596200074a565b620007668184846200071f565b505050565b5b818110156200078e57620007826000826200074f565b6001810190506200076c565b5050565b601f821115620007dd57620007a78162000651565b620007b28462000666565b81016020851015620007c2578190505b620007da620007d18562000666565b8301826200076b565b50505b505050565b600082821c905092915050565b60006200080260001984600802620007e2565b1980831691505092915050565b60006200081d8383620007ef565b9150826002028217905092915050565b6200083882620005e2565b67ffffffffffffffff811115620008545762000853620002f8565b5b6200086082546200061c565b6200086d82828562000792565b600060209050601f831160018114620008a5576000841562000890578287015190505b6200089c85826200080f565b8655506200090c565b601f198416620008b58662000651565b60005b82811015620008df57848901518255600182019150602085019450602081019050620008b8565b86831015620008ff5784890151620008fb601f891682620007ef565b8355505b6001600288020188555050505b505050505050565b6111d580620009246000396000f3fe608060405234801561001057600080fd5b50600436106100885760003560e01c80638aa7c3e81161005b5780638aa7c3e8146100f25780638da5cb5b14610111578063d65ab5f21461012f578063e4a753dd1461013957610088565b806314034bd21461008d5780635e123ce4146100ab5780636cbc2ded146100c9578063826df9aa146100d3575b600080fd5b610095610155565b6040516100a29190610ab1565b60405180910390f35b6100b361036f565b6040516100c09190610aee565b60405180910390f35b6100d1610382565b005b6100db6104c2565b6040516100e9929190610b25565b60405180910390f35b6100fa610569565b604051610108929190610b25565b60405180910390f35b610119610610565b6040516101269190610b96565b60405180910390f35b610137610636565b005b610153600480360381019061014e9190610d26565b61079c565b005b6060600660149054906101000a900460ff166101a6576040517f08c379a000000000000000000000000000000000000000000000000000000000815260040161019d90610dce565b60405180910390fd5b600360010160009054906101000a900460ff1660ff16600060010160009054906101000a900460ff1660ff16111561026c576000800180546101e790610e1d565b80601f016020809104026020016040519081016040528092919081815260200182805461021390610e1d565b80156102605780601f1061023557610100808354040283529160200191610260565b820191906000526020600020905b81548152906001019060200180831161024357829003601f168201915b5050505050905061036c565b600060010160009054906101000a900460ff1660ff16600360010160009054906101000a900460ff1660ff16111561033357600360000180546102ae90610e1d565b80601f01602080910402602001604051908101604052809291908181526020018280546102da90610e1d565b80156103275780601f106102fc57610100808354040283529160200191610327565b820191906000526020600020905b81548152906001019060200180831161030a57829003601f168201915b5050505050905061036c565b6040518060400160405280600c81526020017f497427732061206472617721000000000000000000000000000000000000000081525090505b90565b600660149054906101000a900460ff1681565b600660009054906101000a900473ffffffffffffffffffffffffffffffffffffffff1673ffffffffffffffffffffffffffffffffffffffff163373ffffffffffffffffffffffffffffffffffffffff1614610412576040517f08c379a000000000000000000000000000000000000000000000000000000000815260040161040990610ec0565b60405180910390fd5b600660149054906101000a900460ff16610461576040517f08c379a000000000000000000000000000000000000000000000000000000000815260040161045890610dce565b60405180910390fd5b600061046b610155565b90507f056e3895424a85ef26c4c78d9988dea28d97c77c140b919289906403e80171708160405161049c9190610ab1565b60405180910390a16000600660146101000a81548160ff02191690831515021790555050565b60008060000180546104d390610e1d565b80601f01602080910402602001604051908101604052809291908181526020018280546104ff90610e1d565b801561054c5780601f106105215761010080835404028352916020019161054c565b820191906000526020600020905b81548152906001019060200180831161052f57829003601f168201915b5050505050908060010160009054906101000a900460ff16905082565b600380600001805461057a90610e1d565b80601f01602080910402602001604051908101604052809291908181526020018280546105a690610e1d565b80156105f35780601f106105c8576101008083540402835291602001916105f3565b820191906000526020600020905b8154815290600101906020018083116105d657829003601f168201915b5050505050908060010160009054906101000a900460ff16905082565b600660009054906101000a900473ffffffffffffffffffffffffffffffffffffffff1681565b600660009054906101000a900473ffffffffffffffffffffffffffffffffffffffff1673ffffffffffffffffffffffffffffffffffffffff163373ffffffffffffffffffffffffffffffffffffffff16146106c6576040517f08c379a00000000000000000000000000000000000000000000000000000000081526004016106bd90610ec0565b60405180910390fd5b600660149054906101000a900460ff1615610716576040517f08c379a000000000000000000000000000000000000000000000000000000000815260040161070d90610f2c565b60405180910390fd5b60008060010160006101000a81548160ff021916908360ff1602179055506000600360010160006101000a81548160ff021916908360ff1602179055506001600660146101000a81548160ff0219169083151502179055507f762f260439bb4be3ef6e4dc2786e2e7bd187d3d80b79057d7a424fe98563e33560405160405180910390a1565b600660009054906101000a900473ffffffffffffffffffffffffffffffffffffffff1673ffffffffffffffffffffffffffffffffffffffff163373ffffffffffffffffffffffffffffffffffffffff161461082c576040517f08c379a000000000000000000000000000000000000000000000000000000000815260040161082390610ec0565b60405180910390fd5b600660149054906101000a900460ff1661087b576040517f08c379a000000000000000000000000000000000000000000000000000000000815260040161087290610dce565b60405180910390fd5b6000800160405161088c9190610fef565b604051809103902082805190602001200361092d5780600060010160008282829054906101000a900460ff166108c29190611035565b92506101000a81548160ff021916908360ff1602179055507fbdc8a11217b778402ef010d4e70703d74657784bd874883a44fe68833749b4a660008001600060010160009054906101000a900460ff16604051610920929190611103565b60405180910390a1610a1d565b600360000160405161093f9190610fef565b60405180910390208280519060200120036109e15780600360010160008282829054906101000a900460ff166109759190611035565b92506101000a81548160ff021916908360ff1602179055507fbdc8a11217b778402ef010d4e70703d74657784bd874883a44fe68833749b4a66003600001600360010160009054906101000a900460ff166040516109d4929190611103565b60405180910390a1610a1c565b6040517f08c379a0000000000000000000000000000000000000000000000000000000008152600401610a139061117f565b60405180910390fd5b5b5050565b600081519050919050565b600082825260208201905092915050565b60005b83811015610a5b578082015181840152602081019050610a40565b60008484015250505050565b6000601f19601f8301169050919050565b6000610a8382610a21565b610a8d8185610a2c565b9350610a9d818560208601610a3d565b610aa681610a67565b840191505092915050565b60006020820190508181036000830152610acb8184610a78565b905092915050565b60008115159050919050565b610ae881610ad3565b82525050565b6000602082019050610b036000830184610adf565b92915050565b600060ff82169050919050565b610b1f81610b09565b82525050565b60006040820190508181036000830152610b3f8185610a78565b9050610b4e6020830184610b16565b9392505050565b600073ffffffffffffffffffffffffffffffffffffffff82169050919050565b6000610b8082610b55565b9050919050565b610b9081610b75565b82525050565b6000602082019050610bab6000830184610b87565b92915050565b6000604051905090565b600080fd5b600080fd5b600080fd5b600080fd5b7f4e487b7100000000000000000000000000000000000000000000000000000000600052604160045260246000fd5b610c0782610a67565b810181811067ffffffffffffffff82111715610c2657610c25610bcf565b5b80604052505050565b6000610c39610bb1565b9050610c458282610bfe565b919050565b600067ffffffffffffffff821115610c6557610c64610bcf565b5b610c6e82610a67565b9050602081019050919050565b82818337600083830152505050565b6000610c9d610c9884610c4a565b610c2f565b905082815260208101848484011115610cb957610cb8610bca565b5b610cc4848285610c7b565b509392505050565b600082601f830112610ce157610ce0610bc5565b5b8135610cf1848260208601610c8a565b91505092915050565b610d0381610b09565b8114610d0e57600080fd5b50565b600081359050610d2081610cfa565b92915050565b60008060408385031215610d3d57610d3c610bbb565b5b600083013567ffffffffffffffff811115610d5b57610d5a610bc0565b5b610d6785828601610ccc565b9250506020610d7885828601610d11565b9150509250929050565b7f47616d65206973206e6f74207374617274656420796574000000000000000000600082015250565b6000610db8601783610a2c565b9150610dc382610d82565b602082019050919050565b60006020820190508181036000830152610de781610dab565b9050919050565b7f4e487b7100000000000000000000000000000000000000000000000000000000600052602260045260246000fd5b60006002820490506001821680610e3557607f821691505b602082108103610e4857610e47610dee565b5b50919050565b7f4f6e6c7920746865206f776e65722063616e20706572666f726d20746869732060008201527f616374696f6e0000000000000000000000000000000000000000000000000000602082015250565b6000610eaa602683610a2c565b9150610eb582610e4e565b604082019050919050565b60006020820190508181036000830152610ed981610e9d565b9050919050565b7f47616d6520697320616c72656164792073746172746564000000000000000000600082015250565b6000610f16601783610a2c565b9150610f2182610ee0565b602082019050919050565b60006020820190508181036000830152610f4581610f09565b9050919050565b600081905092915050565b60008190508160005260206000209050919050565b60008154610f7981610e1d565b610f838186610f4c565b94506001821660008114610f9e5760018114610fb357610fe6565b60ff1983168652811515820286019350610fe6565b610fbc85610f57565b60005b83811015610fde57815481890152600182019150602081019050610fbf565b838801955050505b50505092915050565b6000610ffb8284610f6c565b915081905092915050565b7f4e487b7100000000000000000000000000000000000000000000000000000000600052601160045260246000fd5b600061104082610b09565b915061104b83610b09565b9250828201905060ff81111561106457611063611006565b5b92915050565b60008190508160005260206000209050919050565b6000815461108c81610e1d565b6110968186610a2c565b945060018216600081146110b157600181146110c7576110fa565b60ff1983168652811515602002860193506110fa565b6110d08561106a565b60005b838110156110f2578154818901526001820191506020810190506110d3565b808801955050505b50505092915050565b6000604082019050818103600083015261111d818561107f565b905061112c6020830184610b16565b9392505050565b7f496e76616c6964207465616d206e616d65000000000000000000000000000000600082015250565b6000611169601183610a2c565b915061117482611133565b602082019050919050565b600060208201905081810360008301526111988161115c565b905091905056fea26469706673582212202726cc2ab748aaa1214f380dfb2b34b67bbaf6c6e29da64f0f362c0cf77da78164736f6c63430008130033",
  "linkReferences": {},
  "deployedLinkReferences": {}
}